:020000040800F2
:100000002006002045010008BD0300085303000836
:10001000B90300082F0200085D0D00080000000071
:10002000000000000000000000000000750A000849
:100030003302000800000000BF030008610B000845
:100040005F0100085F0100085F0100085F01000810
:100050005F0100085F0100085F0100085F01000800
:100060005F0100085F0100085F0100085F010008F0
:100070005F0100085F0100085F0100085F010008E0
:100080005F0100085F0100085F0100085F010008D0
:100090005F0100085F0100085F0100085F010008C0
:1000A0005F0100085F0100085F0100085F010008B0
:1000B0005F0100085F0100085F0100085F010008A0
:1000C0005F0100085F0100085F0100085F01000890
:1000D0005F0100085F0100085F0100085F01000880
:1000E0005F0100085F0100085F0100085F01000870
:1000F0005F0100085F0100085F0100085F01000860
:100100005F0100085F0100085F0100085F0100084F
:100110005F0100085F0100085F0100085F0100083F
:100120005F0100085F0100085F0100085F0100082F
:10013000DFF80CD000F04AF80048004785100008AE
:10014000200600200648804706480047FEE7FEE7F5
:10015000FEE7FEE7FEE7FEE7FEE7FEE7FEE7FEE777
:10016000650B0008310100082DE9F05F054600200D
:1001700092469B4688460646814640241BE0284618
:1001800041464746224600F042F853465A46C01AB6
:10019000914110D311461846224600F029F82D1A35
:1001A00067EB01084F4622460120002100F020F8AD
:1001B00017EB00094E41201EA4F10104DFDC484684
:1001C00031462A464346BDE8F09F0000064C074DE5
:1001D00006E0E06840F0010394E807009847103417
:1001E000AC42F6D3FFF7A8FF1C1100083C11000831
:1001F000202A04DB203A00FA02F1002070479140E7
:10020000C2F1200320FA03F3194390407047202ADB
:1002100004DB203A21FA02F00021704721FA02F3B0
:10022000D040C2F12002914008431946704700BFF8
:10023000FEE770472DE9F041024600250026002028
:1002400000230024002791F803C00CF00F0591F85B
:1002500003C00CF0100CBCF1000F03D091F802C0E9
:100260004CEA050591F800C0BCF1000F31D01468CC
:1002700000202BE04FF0010C0CFA00F3B1F800C0A5
:100280000CEA03069E4220D183004FF00F0C0CFABB
:1002900003F7BC4305FA03FC4CEA040491F803C0DD
:1002A000BCF1280F06D14FF0010C0CFA00FCC2F88B
:1002B00014C00AE091F803C0BCF1480F05D14FF01B
:1002C000010C0CFA00FCC2F810C0401C0828D1D365
:1002D0001460B1F800C0BCF1FF0F34DD5468002099
:1002E0002EE000F1080C4FF0010808FA0CF3B1F809
:1002F00000C00CEA03069E4221D183004FF00F0C90
:100300000CFA03F7BC4305FA03FC4CEA040491F829
:1003100003C0BCF1280F05D100F1080C08FA0CF855
:10032000C2F8148091F803C0BCF1480F07D100F166
:10033000080C4FF0010808FA0CF8C2F81080401CB5
:100340000828CED35460BDE8F08141617047016157
:10035000704700BFFEE7000008B50121102000F043
:100360002FF810208DF8030003208DF802000820DC
:10037000ADF8000069460F48FFF75CFF1020ADF8AC
:10038000000069460B48FFF755FF2020ADF800003C
:1003900069460848FFF74EFF08210648FFF7D7FFD8
:1003A00010210448FFF7D3FF20210248FFF7CFFFB9
:1003B00008BD00000010014000BFFEE77047704715
:1003C00029B1064A92690243044B9A6104E0034A48
:1003D00092698243014B9A6170470000001002400D
:1003E00030B500210022002400232D4D6D6805F05A
:1003F0000C0121B1042905D0082923D105E0294D9C
:10040000056022E0274D05601FE0254D6D6805F46D
:100410007012234D6D6805F48034022505EB92427D
:100420001CB9214D554305600BE01D4D6D6805F469
:1004300000351DB11C4D5543056002E0194D554373
:10044000056002E0174D056000BF00BF144D6D68E8
:1004500005F0F0010909154D6B5C0568DD4045604C
:100460000F4D6D6805F4E061090A104D6B5C45683D
:10047000DD4085600A4D6D6805F46051C90A0B4D79
:100480006B5C4568DD40C560054D6D6805F4404115
:10049000890B074D6B5CC568B5FBF3F5056130BD95
:1004A0000010024000127A0000093D000000002008
:1004B0001000002021B1028842F04002028004E0D6
:1004C00002884FF6BF731A400280704770B5054628
:1004D0000C46164610211048FFF737FF032000F0A6
:1004E000C1F9C4F3074000F0BDF9C4F3072000F0E0
:1004F000B9F9E0B200F0B6F904E0FF2000F0B2F97B
:1005000028706D1C3000A6F101018EB2F5D11021CA
:100510000148FFF71CFF70BD000801402DE9F05FA6
:1005200007460E4614464FF00009C846C24600254D
:10053000AB4606F0FF0ACAF10000C5B22046E1173B
:1005400004EB1161C1F30729E11704EB11610912F2
:10055000A4EB012101F0FF08BAF1000F23D1B9F19A
:10056000000F05D142463146384600F0C9F868E030
:1005700009E04FF480723146384600F0C1F806F5C4
:10058000807607F580775FEA0900A9F1010101F0A3
:10059000FF09EED1B8F1000F53D04246314638463C
:1005A00000F0AEF84DE0B9F1000F18D1A84510DD0C
:1005B0002A463146384600F0A3F8A8EB050000F0C3
:1005C000FF0B2F442E445A463146384600F098F827
:1005D00037E042463146384600F092F831E0601B81
:1005E00084B22046E11704EB1161C1F30729E1173A
:1005F00004EB11610912A4EB012101F0FF0835B1F0
:100600002A463146384600F07BF82F442E4409E054
:100610004FF480723146384600F072F806F5807665
:1006200007F580775FEA0900A9F1010101F0FF09F0
:10063000EED1B8F1000F04D042463146384600F002
:100640005FF8BDE8F09F000000B587B001210820E9
:10065000FFF7B6FE01210803FFF7B2FE2020ADF838
:10066000180018208DF81B0003208DF81A0006A929
:100670002148FFF7DFFD4020ADF8180006A91E480D
:10068000FFF7D8FD8020ADF8180006A91A48FFF73B
:10069000D1FD1020ADF818008DF81B0006A91648F2
:1006A000FFF7C8FD10211448FFF751FE0020ADF8F8
:1006B00010000120ADF80C000220ADF80A00072060
:1006C000ADF814000020ADF80800ADF80400ADF856
:1006D00012004FF48270ADF806004FF40070ADF8D0
:1006E0000E0001A9054800F08BF901210348FFF72E
:1006F000E1FE07B000BD00000008014000300140ED
:1007000070B505460C46164600F05CF910211548F8
:10071000FFF71BFE022000F0A5F8C4F3074000F02D
:10072000A1F8C4F3072000F09DF8E0B200F09AF8B9
:10073000B6F5807F04DD4FF480760BA000F010FB4F
:1007400003E0287800F08EF86D1C3000A6F101015E
:100750008EB2F6D110210348FFF7F9FD00F01AF927
:1007600070BD0000000801404552524F523A20200F
:1007700053504920464C415348205041474520574B
:100780005249544520544F4F204C41524745212057
:100790000A00000010B5002410210C48FFF7D5FD19
:1007A000AB2000F05FF8FF2000F05CF8FF2000F0C5
:1007B00059F8FF2000F056F8FF2000F053F80446E7
:1007C00010210248FFF7C3FD204610BD000801407C
:1007D0002DE9F041002400250026002710210F48B4
:1007E000FFF7B3FD9F2000F03DF8FF2000F03AF83E
:1007F0000546FF2000F036F80646FF2000F032F8EC
:10080000074610210548FFF7A2FD280440EA06200C
:1008100040EA07042046BDE8F081000000080140DE
:1008200010B5044600F0CEF800F0B4F810210C48E2
:10083000FFF78BFD202000F015F8C4F3074000F00F
:1008400011F8C4F3072000F00DF8E0B200F00AF848
:1008500010210348FFF77BFD00F09CF810BD00005D
:100860000008014010B504464FF480501949086053
:100870000AE018490868411E164A116020B9002094
:1008800000F0DCF8C0B210BD0221134800F0AAF855
:100890000028EED02146104800F0B0F84FF4805008
:1008A0000C4908600AE00B490868411E094A1160BA
:1008B00020B9012000F0C2F8C0B2E4E701210648E7
:1008C00000F090F80028EED0034800F094F8C0B291
:1008D000D9E70000140100200030014010B50020CD
:1008E000FFF79EFF10A000F03BFA134913A000F0A1
:1008F00037FA4FF4807200210F48FFF70FFE11A066
:1009000000F02EFA4FF4807200211348FFF7DEFD4D
:1009100012A000F025FA104908A000F021FA13A057
:1009200000F01EFA012010BDD0B4C8EBB5C4CAFD5A
:10093000BEDD3A0A00000000140000202573200AE2
:1009400000000000494E464F3A2020D0B4B3C9B948
:10095000A60A200A000000001C010020B6C1B3F660
:10096000B5C4CAFDBEDD3A0A00000000494E464F3C
:100970003A202053504920464C41534820573235A5
:10098000583136B6C1D0B4B2E2CAD4B3C9B9A6217F
:100990000A200A0010B510210948FFF7D6FC0520EF
:1009A000FFF760FF00BFFF20FFF75CFF044604F085
:1009B00001000028F7D110210148FFF7C8FC10BD45
:1009C0000008014010B510210548FFF7BEFC0620C5
:1009D000FFF748FF10210248FFF7B9FC10BD0000E7
:1009E000000801400246002013890B400BB1012092
:1009F00000E0002070470146888970478181704778
:100A000010B50022028802F441520B884C8823431F
:100A10008C882343CC8823430C8923434C8923436C
:100A20008C892343CC8923431A430280838B4FF262
:100A3000FF74234083830B8A038210BD10B50446E4
:100A4000214602A000F08CF9002010BD4552524F03
:100A5000523A20535049B5C8B4FDB3ACCAB1A3ACA7
:100A60004552524F5220434F4445203A202564209E
:100A70000A000000704710B500F002F810BD000039
:100A80000CB50020019000903348006840F480309D
:100A90003149086000BF3048006800F40030009021
:100AA0000198401C0190009818B90198B0F5A06F0A
:100AB000F1D12948006800F4003010B10120009005
:100AC00001E0002000900098012843D123480068ED
:100AD00040F01000214908600846006820F003003B
:100AE00008600846006840F0020008601A48406844
:100AF000194948600846406848600846406840F424
:100B0000806048600846406820F47C1048600846D1
:100B1000406840F4E81048600846006840F0807083
:100B2000086000BF0C48006800F000700028F9D091
:100B30000948406820F003000749486008464068BB
:100B400040F00200486000BF0348406800F00C001D
:100B50000828F9D10CBD000000100240002002401E
:100B60007047000010B51348006840F001001149BB
:100B7000086008464068104908400E494860084629
:100B800000680E4908400B4908600846006820F4D8
:100B9000802008600846406820F4FE0048604FF45A
:100BA0001F008860FFF767FF4FF00060044908608E
:100BB00010BD0000001002400000FFF8FFFFF6FE2D
:100BC00008ED00E021B1828942F40052828104E004
:100BD00082894DF6FF731A408281704700B585B057
:100BE00001210420FFF7ECFB01218803FFF7E8FB5C
:100BF0004FF40070ADF8100018208DF8130003209A
:100C00008DF8120004A91448FFF714FB4FF480601C
:100C1000ADF8100004208DF8130004A90E48FFF76A
:100C200009FB4FF4E13000900020ADF80400ADF86E
:100C30000800ADF806000C20ADF80A000020ADF861
:100C40000C006946054800F019F801210348FFF738
:100C5000B9FF05B000BD00000008014000380140A8
:100C600002460020B1F5007F00D100BF13880B4081
:100C70000BB1012000E00020704700002DE9F04793
:100C800086B005460E460024A24600BFA1460027B6
:100C9000B08900B100BF2F462C8A4CF6FF7004408B
:100CA000F08804432C82AC894EF6F3100440B088DF
:100CB00031890843718908430443AC81AC8A4FF6FB
:100CC000FF400440B0890443AC8201A8FFF788FBD1
:100CD0001F48874202D1DDF810A001E0DDF80CA02A
:100CE000A88900F4004040B10AEBCA0000EB0A10EA
:100CF00031684900B0FBF1F807E00AEBCA0000EBED
:100D00000A1031688900B0FBF1F86420B8FBF0F0FC
:100D100004012009642101FB1089A88900F4004026
:100D200040B1322000EBC900B0FBF1F000F0070049
:100D3000044308E0322000EB09106421B0FBF1F01D
:100D400000F00F0004432C8106B0BDE8F0870000DE
:100D500000380140C1F308028280704700BFFEE7FF
:100D60000FB4054B10B503A9044A029800F018F817
:100D700010BC5DF814FB0000611000081801002091
:100D800002E008C8121F08C1002AFAD17047704754
:100D9000002001E001C1121F002AFBD170470000B2
:100DA0002DE9FF4F8DB09B460F460446002606E016
:100DB00025280BD05A460F999047641C761C207842
:100DC0000028F5D111B03046BDE8F08F0025A846C7
:100DD0000122984900E0054314F8013F203B02FA44
:100DE00003F00842F7D120782E2817D114F8010F0C
:100DF00045F004052A280ED06FF02F022078A0F1CC
:100E0000300109290AD808EB880102EB410100EB07
:100E10000108641CF2E757F8048B641C20786C28E6
:100E20000DD004DC4C2812D06A2811D104E07428BB
:100E30000DD07A280CD10AE045F4001507E061785E
:100E400045F48015814202D1641C05F58015641CAF
:100E50002278692A45D008DC002AB3D0582A69D004
:100E6000632A10D0642A08D13BE0702A67D0732A25
:100E700013D0752A5CD0782A5CD010465A460F9958
:100E80009047761CD3E017F8040B8DF80000002083
:100E90008DF80100E946012003E057F8049B4FF06C
:100EA000FF3069074FF0000501D40AE06D1C45458D
:100EB0000DDA8542FADB19F805100029F6D106E0B3
:100EC0006D1C8542FCDB19F805100029F8D12E4471
:100ED00004E019F8010B5A460F9990476D1EF8D29D
:100EE000A5E00A200021CDE90801C5F3025002283F
:100EF0000DD001CFC117031E71F100030DDA4FF0C1
:100F0000000CD0EB0C006CEB01012D2308E0FF1D61
:100F100027F00707F7E80201EDE72B0504D52B239F
:100F20008DF8283001233BE0EB0739D02023F7E789
:100F30000A2000E010200021CDE9080107E0102080
:100F4000002145F00405CDE908014FF00808C5F37C
:100F5000025002280FD001CF00214FF0000A2B07CA
:100F60001FD5702A0DD0DDE908C38CF0100C5CEAA7
:100F7000030C0CD015E0FF1D27F00707F7E802016E
:100F8000EBE740228DF828204FF0010A0BE050EAF1
:100F9000010306D030238DF828308DF82920022354
:100FA0009A46582A04D024A20DF120090B9209E098
:100FB00026A2F9E7DDE90823FFF7D6F80B9B9B5C37
:100FC00009F8013D50EA0102F4D1ADEB09002030EF
:100FD0000890680701D44FF001080899884502DDA0
:100FE000A8EB010000E000208046002506E00AA8EA
:100FF0005A46405D0F9990476D1C761C5545F6DBAF
:1010000004E030205A460F999047761CB8F1000151
:10101000A8F10108F5DC05E019F8010B5A460F9913
:101020009047761C0899481E08900029F4DC641C3F
:10103000C5E6000009280100303132333435363737
:101040003839616263646566000000003031323314
:1010500034353637383941424344454600000000B4
:1010600070B504460D46E1B20548FFF773FE00BFB8
:1010700080210348FFF7F4FD0028F9D0204670BD19
:10108000003801401CB5002001900090FFF764F982
:10109000102010494861FFF7A1FD0FA0FFF760FE87
:1010A000FFF7D2FAFFF794FB0190FFF773FB009074
:1010B00011A0DDE90021FFF753FEFFF70FFC012827
:1010C00003D108200349486102E008200149086172
:1010D00000BFFEE700100140D5E2CAC7D2BBB8F698
:1010E000535049CDE2C9E8573235583136B6C1D0F0
:1010F000B4B2E2CAD4210A004A4544454344657665
:101100006963654944203D2025582044657669631C
:10111000654944203D202558200A00003C11000864
:10112000000000201C010000800D0008581200087B
:101130001C01002004050000900D000800000000C4
:101140000102030401020304060708090204060859
:1011500043D3EFD1D4B3CCD0F2C9E8BCC6A3BACF45
:10116000D6B4FAB7BDB7A820B5DAB6FEB0E620D738
:10117000F7D5DFA3BA4B2E4E2E4B494E4720000029
:10118000000000000000000000000000000000005F
:10119000000000000000000000000000000000004F
:1011A000000000000000000000000000000000003F
:1011B000000000000000000000000000000000002F
:1011C000000000000000000000000000000000001F
:1011D000000000000000000000000000000000000F
:1011E00000000000000000000000000000000000FF
:1011F00000000000000000000000000000000000EF
:1012000000000000000000000000000000000000DE
:1012100000000000000000000000000000000000CE
:1012200000000000000000000000000000000000BE
:1012300000000000000000000000000000000000AE
:10124000000000000000000000000000000000009E
:0812500000A0000000000000F6
:0400000508000131BD
:00000001FF
